:100AB0000000000000000000000000000000000135
:100AC0000000000000010000000000000001000123
:100AD0000000000100000000000000010000000113
:100AE0000000000100010000000000010001000101
:100AF00000010000000000000001000000000001F3
:100B6400C100C10102080009020A0000020C0000D1
:1009D700758902758C06758A06D2A9D2AFD2A8D2BC
:1009E70088D2AAD28AAF09AE08120A52120B753002
:1009F7000006E5094508700B3001F4E5096409456F
:100A07000860ECD28CC3E50D9405E50C94005017F3
:100A170030000AC290D291D293C29480D2D290C2AF
:100A270091C293D29480C8120B7530000AE509155C
:100A370009700C150880080509E5097002050812F8
:0B0A47000B4EAF09AE08120A5280A44B
:040A52008E218F2240
:100A560078237C007D007BFF7A0A79B07E007F5088
:100A66001208D0AF22EF75F008A42429F8E6FC0896
:100A7600E64C24FF92A0EF75F008A42427F8E6FEC2
:100A860008E64E24FF92A1EF75F008A42425F8E6A7
:100A9600FC08E64C24FF92A2EF75F008A42423F884
:090AA600E6FE08E64E24FF92A3CF
:010AAF002224
:0B0B7500C290D291D292C293D294227F
:100B4E00E4F50AF50BF50CF50DC28C758C06758A5D
:060B5E0006C200C20122E4
:03000300020B806D
:030B8000D200326E
:03001300020B835A
:030B8300D201326A
:03000B00020B00E5
:100B0000C0E0C0F0C0D075D000C000C004C005C0B7
:100B100006C007050BE50B7002050AAE0AFF7C0F45
:100B20007DA01208F6ED4C7014E50D450C7004C262
:100B3000928002B292050DE50D7002050CD007D02F
:0E0B400006D005D004D000D0D0D0F0D0E032E6
:0300000002094BA7
:0C094B00787FE4F6D8FD758172020992F5
:10080000E709F608DFFA8046E709F208DFFA803EDA
:1008100088828C83E709F0A3DFFA8032E309F608C7
:10082000DFFA8078E309F208DFFA807088828C832F
:10083000E309F0A3DFFA806489828A83E0A3F608E3
:10084000DFFA805889828A83E0A3F208DFFA804CBD
:1008500080D280FA80C680D4806980F28033801094
:1008600080A680EA809A80A880DA80E280CA8033FD
:1008700089828A83ECFAE493A3C8C582C8CCC58375
:10088000CCF0A3C8C582C8CCC583CCDFE9DEE78045
:100890000D89828A83E493A3F608DFF9ECFAA9F0C4
:1008A000EDFB2289828A83ECFAE0A3C8C582C8CC1A
:1008B000C583CCF0A3C8C582C8CCC583CCDFEADE33
:1008C000E880DB89828A83E493A3F208DFF980CC95
:1008D00088F0EF60010E4E60C388F0ED2402B4048E
:1008E0000050B9F582EB2402B4040050AF23234535
:0608F00082239008507302
:1008F600BC000BBE0029EF8DF084FFADF022E4CCE6
:10090600F875F008EF2FFFEE33FEEC33FCEE9DECAE
:10091600984005FCEE9DFE0FD5F0E9E4CEFD22EDF4
:10092600F8F5F0EE8420D21CFEADF075F008EF2F3E
:10093600FFED33FD4007985006D5F0F222C398FD2F
:050946000FD5F0EA22CC
:100957000209D7E493A3F8E493A34003F68001F2D6
:1009670008DFF48029E493A3F85407240CC8C333A1
:10097700C4540F4420C8834004F456800146F6DF70
:10098700E4800B0102040810204080900B64E47E91
:10099700019360BCA3FF543F30E509541FFEE49365
:1009A700A360010ECF54C025E060A840B8E493A32C
:1009B700FAE493A3F8E493A3C8C582C8CAC583CA57
:1009C700F0A3C8C582C8CAC583CADFE9DEE780BE0F
:010B74000080
:00000001FF
